:100000000C940D1F0C943E1F0C943E1F0C943E1F2D
:100010000C943E1F0C943E1F0C943E1F0C943E1FEC
:100020000C943E1F0C943E1F0C943E1F0C943E1FDC
:100030000C943E1F0D94A2010C943E1F0C943E1F85
:100040000C943E1F0C94A37D0C943E1F0C943E1FF9
:100050000C943E1F0C943E1F0C94A5910C9468FBCD
:100060000C943E1F0C946A270C943E1F0C943E1F68
:100070000C943E1F0C943E1F0C943E1F0C943E1F8C
:100080000C943E1F0C943E1F0C943E1F0C943E1F7C
:100090000C943E1F0C943E1F0C943E1F0C943E1F6C
:1000A0000C943E1F0C943E1F0C943E1F0C943E1F5C
:1000B0000C943E1F0C943E1F0C943E1F0C943E1F4C
:1000C0000C943E1F0C943E1F0C943E1F0C943E1F3C
:1000D0000C943E1F0C943E1F0C943E1F0C943E1F2C
:1000E0000C943E1F223622362D362D362D363836CC
:1000F000383638367036663666366636FF910D927B
:100100002992379251925F9279927D9285929EFCCC
:10011000A3FCA8FCB2FCBCFC35FDC6FCCEFCD6FCA6
:10012000E0FCEAFCF4FC03FD0DFD35FD17FD21FDAF
:100130002BFD57FD5AFD49FD4DFD53FD91FD5EFD23
:1001400062FD68FD6CFD70FD76FD7AFD7EFD91FD22
:1001500084FD88FD8CFD084AD73B3BCE016E84BCF4
:10016000BFFDC12F3D6C74319ABD56833DDA3D0011
:10017000C77F11BED9E4BB4C3E916BAAAABE00005A
:1001800000803F05A84CCDB2D44EB93836A9020C38
:1001900050B9918688083CA6AAAA2ABE0000008011
:1001A0003F0048617264636F646564204465666102
:1001B000756C742053657474696E6773204C6F613D
:1001C0006465640053746F72656420736574746948
:1001D0006E67732072657472696576656400204489
:1001E000002049002020204D33303120500050495C
:1001F000442073657474696E67733A00205A002056
:10020000590020204D323036205800486F6D65204F
:100210006F666673657420286D6D293A002045006D
:10022000205A0020580020420020540020204D3247
:100230003035205300416476616E636564207661D9
:10024000726961626C65733A20533D4D696E206638
:100250006565647261746520286D6D2F73292C208B
:10026000543D4D696E2074726176656C20666565DB
:10027000647261746520286D6D2F73292C20423DB6
:100280006D696E696D756D207365676D656E74203F
:1002900074696D6520286D73292C20583D6D617837
:1002A000696D756D205859206A65726B20286D6DD7
:1002B0002F73292C20205A3D6D6178696D756D2052
:1002C0005A206A65726B20286D6D2F73292C2020AF
:1002D000453D6D6178696D756D2045206A65726B6D
:1002E00020286D6D2F73290020540020204D3230BE
:1002F00034205300416363656C65726174696F6E8D
:100300003A20533D616363656C65726174696F6E19
:100310002C20543D7265747261637420616363655F
:100320006C65726174696F6E00204500205A002070
:10033000590020204D3230312058004D6178696DD0
:10034000756D20416363656C65726174696F6E20C1
:10035000286D6D2F7332293A00204500205A002065
:10036000590020204D3230332058004D6178696D9E
:10037000756D2066656564726174657320286D6DA6
:100380002F73293A0020453100204500205A0020D3
:10039000590020204D393220580053746570732065
:1003A00070657220756E69743A0053657474696E75
:1003B00067732053746F726564006563686F3A00F9
:1003C00053544F505045442E20005072696E74654E
:1003D000722073746F707065642064756520746F2B
:1003E000206572726F72732E20466978207468657A
:1003F000206572726F7220616E6420757365204D86
:1004000039393920746F20726573746172742E20CB
:100410002854656D7065726174757265206973200A
:1004200072657365742E205365742069742061664B
:100430007465722072657374617274696E672900E5
:100440004B494C4C45442E20005072696E746572C5
:100450002068616C7465642E206B696C6C2829209F
:1004600063616C6C656421006F6B00526573656E2F
:10047000643A20002200556E6B6E6F776E20636FBA
:100480006D6D616E643A2022004368616E6765207D
:1004900066696C616D656E74006C636420636F6E79
:1004A00074726173742076616C75653A20007A5FAE
:1004B0006D696E3A2000795F6D696E3A2000785F51
:1004C0006D696E3A20005A3A00593A0020436F7520
:1004D0006E7420583A2000453A005A3A00593A00C2
:1004E000583A004649524D574152455F4E414D459D
:1004F0003A4D61726C696E2056312E302E302E319D
:100500003B205374616E646172642056322E302039
:100510004649524D574152455F55524C3A687474A2
:1005200070733A2F2F636F64652E616C6570686F0E
:10053000626A656374732E636F6D2F646966667596
:1005400073696F6E2F4D41524C494E2F2050524FC0
:10055000544F434F4C5F56455253494F4E3A312EFC
:1005600030204D414348494E455F545950453A5417
:10057000415A2045585452554445525F434F554EB9
:10058000543A3120555549443A633332353563394D
:10059000362D343039372D343838342D38656430C1
:1005A0002D6465643266663962616536310A0054CD
:1005B000415A204F66662E0054415A2052656164AC
:1005C000792E0042656420646F6E652E0020423AE9
:1005D0000020453A00543A00426564204865617441
:1005E000696E672E0048656174696E6720646F6E7E
:1005F000652E0020573A0020453A00543A004865DD
:100600006174696E672E2E2E002042403A00204011
:100610003A00202F003A00205400202F0020423AB8
:1006200000202F006F6B20543A002569206D696E01
:100630002C2025692073656300456E642066696C13
:1006400065206C69737400426567696E2066696C29
:1006500065206C697374004E6F206D6F76652E0097
:10066000526573756D696E67207072696E7400579C
:1006700061697420666F7220757365722E2E2E006C
:10068000536C6565702E2E2E00256920686F75727B
:1006900073202569206D696E7574657300446F6EF3
:1006A00065207072696E74696E672066696C65009A
:1006B00053544F505045442E20005072696E74655B
:1006C000722073746F707065642064756520746F38
:1006D000206572726F72732E204669782074686587
:1006E000206572726F7220616E6420757365204D93
:1006F00039393920746F20726573746172742E20D9
:100700002854656D70657261747572652069732017
:1007100072657365742E2053657420697420616658
:100720007465722072657374617274696E672900F2
:100730006F6B004E6F204C696E65204E756D626563
:1007400072207769746820636865636B73756D2CBC
:10075000204C617374204C696E653A20004E6F2006
:10076000436865636B73756D2077697468206C6985
:100770006E65206E756D6265722C204C61737420FD
:100780004C696E653A2000636865636B73756D2014
:100790006D69736D617463682C204C617374204CB7
:1007A000696E653A20004C696E65204E756D626514
:1007B00072206973206E6F74204C617374204C69D1
:1007C0006E65204E756D6265722B312C204C617305
:1007D00074204C696E653A20004D31313000446F11
:1007E0006E6520736176696E672066696C652E00A0
:1007F0006F6B004D3239002020506C616E6E657257
:1008000042756666657242797465733A20002046C7
:10081000726565204D656D6F72793A20004A756C7E
:10082000203238203230313600436F6D70696C658C
:10083000643A200028416C657068204F626A6563E5
:1008400074732C20496E632C2054415A2020636F0E
:100850006E6669672900207C20417574686F723A62
:1008600020004A756C203238203230313620303149
:100870003A33343A313700204C6173742055706438
:10088000617465643A2000312E302E302E31004DD7
:1008900061726C696E200020536F667477617265B7
:1008A00020526573657400205761746368646F67D4
:1008B000205265736574002042726F776E206F75E9
:1008C00074205265736574002045787465726E619A
:1008D0006C20526573657400506F776572557000B7
:1008E0007374617274002200656E717565696E675C
:1008F0002022002200656E717565696E67202200F6
:10090000FFFFFF0000A0400000A04000008040006A
:100910000095430080894300007A430000000000F6
:1009200000000000000000000095430080894300A3
:10093000007A430000000000000000000000006595
:1009400063686F3A004572726F723A007C3C3E5E9B
:100950002B3D3F2F5B5D3B2C2A225C004D38342021
:10096000582059205A20450043616E6E6F742065EF
:100970006E746572207375626469723A20004D323C
:1009800034004D3233202573006175746F25692E54
:1009900067006572726F722077726974696E672082
:1009A000746F2066696C65004E6F7420534420702C
:1009B00072696E74696E67002F005344207072690B
:1009C0006E74696E67206279746520002E0044653C
:1009D0006C6574696F6E206661696C65642C204675
:1009E000696C653A200046696C652064656C6574C5
:1009F00065643A002E006F70656E206661696C65F3
:100A0000642C2046696C653A200057726974696EDF
:100A10006720746F2066696C653A20002E006F7045
:100A2000656E206661696C65642C2046696C653A68
:100A300020002E006F70656E206661696C65642C05
:100A40002046696C653A200046696C652073656CC8
:100A50006563746564002053697A653A20004669CD
:100A60006C65206F70656E65643A20002E006F70B3
:100A7000656E206661696C65642C2046696C653A18
:100A800020004E6F772066726573682066696C651A
:100A90003A20004E6F7720646F696E672066696C3C
:100AA000653A20002220706F730022207061726509
:100AB0006E743A2200535542524F5554494E4520C8
:100AC00043414C4C207461726765743A2200747221
:100AD00079696E6720746F2063616C6C2073756236
:100AE0002D67636F64652066696C65732077697430
:100AF0006820746F6F206D616E79206C6576656C0F
:100B0000732E204D4158206C6576656C2069733AD0
:100B10000053442063617264206F6B006F70656ED8
:100B2000526F6F74206661696C656400766F6C75D6
:100B30006D652E696E6974206661696C6564005329
:100B40004420696E6974206661696C006563686F32
:100B50003A004572726F723A0020746F6F206C6FAA
:100B60006E6720657874727573696F6E2070726538
:100B700076656E7465640020636F6C6420657874BC
:100B8000727573696F6E2070726576656E746564D8
:100B9000006563686F3A0045313A200045303A20DD
:100BA000005A3A2000593A2000583A20004D53315B
:100BB0002C4D53322050696E730A004D3834205842
:100BC0002059205A204500656E6473746F7073203D
:100BD0006869743A205A00205A3A00656E6473744A
:100BE0006F7073206869743A20590020593A006583
:100BF0006E6473746F7073206869743A20580020B3
:100C0000583A00656E6473746F7073206869743A43
:100C1000200024F4D43050C38E20C2A24017828B0F
:100C20007011127A910D816CD90AA861E108C75838
:100C30006607615143061E4B5D05C145A7041A4175
:100C40001104093D9803713931034036DB026533E5
:100C50009102D4305402802E1D02632CEE01752ABD
:100C6000C501B028A001102781018F2564012B2424
:100C70004B01E0223401AC211F018D200D01801FAA
:100C8000FC00841EED00971DDF00B81CD200E61B9F
:100C9000C600201BBC00641AB200B219A8000A19D1
:100CA000A0006A189900D117910040178B00B51663
:100CB000840031167E00B31579003A157300C7140D
:100CC0006F0058146A00EE13660088136300251342
:100CD0005E00C7125B006C12570015125400C11160
:100CE000510070114F0021114B00D61049008D109A
:100CF00047004610440002104200C00F4000800F21
:100D00003E00420F3C00060F3B00CB0E3800930E16
:100D100037005C0E3500270E3400F30D3200C10D94
:100D20003100900D3000600D2E00320D2D00050DAC
:100D30002C00D90C2B00AE0C2900850C29005C0C72
:100D40002700350C27000E0C2600E80B2400C40BEE
:100D50002400A00B23007D0B23005A0B2100390B2C
:100D60002100180B2000F80A1F00D90A1E00BB0A38
:100D70001E009D0A1D00800A1D00630A1C00470A10
:100D80001B002C0A1B00110A1A00F7091A00DD09C2
:100D90001900C4091900AB091900920917007B0951
:100DA0001800630917004C091600360916002009BF
:100DB00016000A091500F5081500E0081400CC0813
:100DC0001400B8081400A4081400900813007D084B
:100DD00012006B081300580812004608120034086D
:100DE0001100230811001208110001081100F0077A
:100DF0001000E0071000D0071000C0071000B00777
:100E00000F00A107100091070E0083070F00740761
:100E10000F0065070E0057070E0049070E003B073D
:100E20000D002E070E0020070D0013070D0006070A
:100E30000D00F9060C00ED060D00E0060C00D406CE
:100E40000C00C8060C00BC060C00B0060C00A40682
:100E50000B0099060C008D060B0082060B0077062E
:100E60000B006C060B0061060A0057060B004C06CF
:100E70000A0042060A0038060A002E060A00240666
:100E80000A001A060A001006090007060A00FD05F6
:100E90000900F4050900EB050900E2050900D90580
:100EA0000900D0050900C7050900BE050900B50500
:100EB0000800AD050800A50509009C05080094057B
:100EC00008008C050800840508007C0508007405EE
:100ED00008006C050700650508005D05070056055C
:100EE00008004E05070047050700400508003805C3
:100EF0000700310507002A050700230507001C0528
:100F00000600160507000F05070008050600020584
:100F10000700FB040600F5040700EE040600E804E1
:100F20000600E2040700DB040600D5040600CF0437
:100F30000600C9040600C3040600BD040600B70489
:100F40000600B1040500AC040600A6040600A004D7
:100F500005009B04060095040500900406008A0421
:100F6000050085040500800406007A040500750468
:100F70000500700405006B040500660405006104AB
:100F800005005C04050057040500520405004D04EB
:100F9000050048040500430405003E0404003A042B
:100FA000050035040500300404002C040500270466
:100FB0000400230405001E0404001A04040016049F
:100FC0000500110404000D040400090405000404D4
:100FD000040000040400FC030400F8030400F4030C
:100FE0000400F0030400EC030400E8030400E4033D
:100FF0000400E0030400DC030400D8030400D4036D
:101000000400D0030400CC030400C8030300C5039C
:10101000030024F404D9201BC40C5C0E9804C409FA
:101020005F0265077101F405F900FB04B300480491
:101030008700C10369005803550003034500BE0241
:101040003A008402310053022A00290225000402DA
:101050002000E4011C00C8011900AF01170098012D
:10106000140084011300710110006101100051018E
:101070000E0043010D0036010B002B010B00200177
:101080000B00150109000C01090003010800FB0019
:101090000800F3000800EB000700E4000600DE0093
:1010A0000600D8000600D2000600CC000500C700EC
:1010B0000500C2000500BD000400B9000400B50031
:1010C0000400B1000400AD000400A9000400A50064
:1010D0000300A20003009F0004009B00030098008F
:1010E00003009500020093000300900003008D00B0
:1010F00002008B00030088000200860002008400CA
:101100000300810002007F0002007D0002007B00DE
:1011100002007900020077000100760002007400EE
:10112000020072000100710002006F0002006D00F9
:1011300001006C0002006A00010069000200670003
:101140000100660001006500010064000200620009
:10115000010061000100600001005F0002005D000D
:1011600001005C0001005B0001005A000100590011
:101170000100580001005700010056000100550011
:101180000100540001005300000053000100520010
:10119000010051000100500001004F0001004E000D
:1011A00000004E0001004D0001004C0001004B000A
:1011B00000004B0001004A00010049000100480006
:1011C0000000480001004700010046000000460002
:1011D00001004500000045000100440001004300FB
:1011E00000004300010042000000420001004100F5
:1011F000000041000100400001003F0000003F00EE
:1012000001003E0000003E0001003D0000003D00E6
:1012100001003C0000003C0000003C0001003B00DD
:1012200000003B0001003A0000003A0001003900D4
:1012300000003900010038000000380000003800CC
:1012400001003700000037000100360000003600C2
:1012500000003600010035000000350000003500B8
:1012600001003400000034000000340001003300AD
:1012700000003300000033000100320000003200A3
:101280000000320001003100000031000000310098
:1012900001003000000030000000300001002F008D
:1012A00000002F0000002F0000002F0001002E0082
:1012B00000002E0000002E0001002D0000002D0077
:1012C00000002D0000002D0001002C0000002C006B
:1012D00000002C0000002C0001002B0000002B005F
:1012E00000002B0000002B0001002A0000002A0053
:1012F00000002A0000002A00010029000000290047
:101300000000290000002900000029000100280039
:10131000000028000000280000002800000028002D
:101320000100270000002700000027000000270020
:101330000000270001002600000026000000260013
:101340000000260000002600010025000000250006
:1013500000002500000025000000250000002500F9
:1013600001002400000024000000240000002400EC
:1013700000002400010023000000230000002300DF
:1013800000002300000023000000230000002300D1
:1013900001002200000022000000220000002200C4
:1013A00000002200000022000100210000002100B6
:1013B00000002100000021000000210000002100A9
:1013C000000021000100200000002000000020009B
:1013D000000020000000200000002000000020008D
:1013E0000000200001001F0000001F0000001F007F
:1013F00000001F0000001F0000001F0000001F0071
:1014000001001E0000001E0000001E0000001E0063
:1014100000006563686F3A004572723A204D41588A
:1014200054454D50204245440054656D70657261CD
:1014300074757265206865617465642062656420F6
:101440007377697463686564206F66662E204D410A
:101450005854454D50207472696767657265642001
:101460002121004572723A204D494E54454D50009D
:101470003A20457874727564657220737769746375
:10148000686564206F66662E204D494E54454D5068
:101490002074726967676572656420210045727205
:1014A0003A204D415854454D50003A2045787472C9
:1014B00075646572207377697463686564206F660C
:1014C000662E204D415854454D502074726967670F
:1014D00065726564202100202D20496E76616C695B
:1014E00064206578747275646572206E756D6265CE
:1014F00072202100504944204175746F74756E65E7
:101500002066696E69736865642120507574207463
:101510006865204B702C204B6920616E64204B6401
:1015200020636F6E7374616E747320696E746F20C4
:10153000436F6E66696775726174696F6E2E6800BD
:10154000504944204175746F74756E6520666169F9
:101550006C6564212074696D656F75740020403A74
:10156000006F6B20543A006F6B20423A00504944A0
:10157000204175746F74756E65206661696C656471
:10158000212054656D706572617475726520746F89
:101590006F206869676800204B643A2000204B691F
:1015A0003A2000204B703A200020436C617369633D
:1015B0002050494420002054753A2000204B753AB1
:1015C0002000206D61783A2000206D696E3A20007D
:1015D00020643A200020626961733A2000457272EB
:1015E0006F723A001000AD0330016A0150022B0106
:1015F00070030A019004F500B005E500D006D8009C
:10160000F007CE001009C500300ABE00500BB7002D
:10161000700CB100900DAB00B00EA600D00FA20070
:10162000F0109D0010129900301395005014920094
:1016300070158E0090168B00B0178700D0188400AC
:10164000F0198100101B7E00301C7B00501D7900BA
:10165000701E7600901F7300B0207000D0216E00C5
:10166000F0226B00102469003025660050266300CC
:101670007027610090285E00B0295C00D02A5900D4
:10168000F02B5600102D5400302E5100502F4E00DC
:1016900070304B0090314800B0324500D0334200EA
:1016A000F0343E0010363B003037370050383300FE
:1016B00070392E00903A2900B03B2300D03C1B002B
:1016C000F03D1100103F0100F03F000043617264E3
:1016D0002072656D6F766564004361726420696E87
:1016E000736572746564005900B02000B02000B0CA
:1016F0002000B020002D2D3A2D2D004D3630300029
:101700004368616E67652066696C616D656E740023
:10171000466C6F7700466C6F770046616E20737081
:101720006565640046616E2073706565640042659E
:101730006400426564004E6F7A7A6C65004E6F7A81
:101740007A6C65005370656564005370656564006C
:101750004D61696E00580059005A004578747275E1
:10176000646572004578747275646572004D6F76B9
:1017700065205A004D6F76652059004D6F766520C3
:1017800058004D6F76652041786973004D6F76651E
:1017900020302E316D6D004D6F766520316D6D00FE
:1017A0004D6F76652031306D6D004D6F76656D65DE
:1017B0006E74004D6F76652041786973004732384A
:1017C000004175746F20486F6D65004D38340044DA
:1017D000697361626C652053746570706572730023
:1017E0004D61696E0053746F7265206D656D6F7227
:1017F000790042656400426564004E6F7A7A6C65D8
:10180000004E6F7A7A6C650046616E207370656574
:10181000640046616E20737065656400437573747F
:101820006F6D2054656D700053746F7265206D6527
:101830006D6F72790042656400426564004E6F7A94
:101840007A6C65004E6F7A7A6C650046616E207323
:10185000706565640046616E207370656564004361
:101860007573746F6D2054656D700053746F72657D
:10187000206D656D6F727900426564004265640099
:101880004E6F7A7A6C65004E6F7A7A6C65004661AD
:101890006E2073706565640046616E2073706565C7
:1018A0006400437573746F6D2054656D70005374DC
:1018B0006F7265206D656D6F7279004265640042DC
:1018C0006564004E6F7A7A6C65004E6F7A7A6C654B
:1018D0000046616E2073706565640046616E20731A
:1018E0007065656400437573746F6D2054656D7029
:1018F0000053746F7265206D656D6F72790042657B
:101900006400426564004E6F7A7A6C65004E6F7AAF
:101910007A6C650046616E2073706565640046618F
:101920006E20737065656400437573746F6D205429
:10193000656D700053746F7265206D656D6F72799F
:101940000042656400426564004E6F7A7A6C6500FF
:101950004E6F7A7A6C650046616E207370656564BF
:101960000046616E20737065656400437573746F23
:101970006D2054656D700053746F7265206D656DD8
:101980006F72790042656400426564004E6F7A7A36
:101990006C65004E6F7A7A6C650046616E207370DC
:1019A0006565640046616E2073706565640043750B
:1019B00073746F6D2054656D700053746F72652081
:1019C0006D656D6F72790042656400426564004E1A
:1019D0006F7A7A6C65004E6F7A7A6C650046616E3C
:1019E0002073706565640046616E20737065656480
:1019F00000437573746F6D2054656D700053746F80
:101A00007265206D656D6F72790042656400426594
:101A100064004E6F7A7A6C65004E6F7A7A6C65005E
:101A200046616E2073706565640046616E20737058
:101A300065656400437573746F6D2054656D700047
:101A400053746F7265206D656D6F727900426564C5
:101A500000426564004E6F7A7A6C65004E6F7A7A48
:101A60006C650046616E2073706565640046616E4A
:101A700020737065656400437573746F6D205465E1
:101A80006D700054474C41534520436F6E660050C3
:101A90004F4C594341524220436F6E66004C4159AE
:101AA000425249434B20436F6E66004E2D56454EC1
:101AB0005420436F6E6600414C4C4F5920393130F1
:101AC00020436F6E6600504354504520436F6E664E
:101AD0000042524944474520436F6E6600414253DD
:101AE00020436F6E66004849505320436F6E660076
:101AF000504C4120436F6E66005049442D430050C6
:101B000049442D43005049442D44005049442D443C
:101B1000005049442D49005049442D490050494442
:101B20002D50005049442D5000200220466163741E
:101B30000020022046616374002002204D6178007D
:101B40002002204D6178002002204D696E002002A5
:101B5000204D696E004F6666004F6E20004F66662E
:101B6000004F6E20004175746F74656D70004661A2
:101B70006E2073706565640046616E2073706565E4
:101B8000640042656400426564004E6F7A7A6C6559
:101B9000004E6F7A7A6C650054656D706572617481
:101BA00075726500436F6F6C646F776E0054474CBD
:101BB00041534500504F4C5943415242004C41590A
:101BC000574F4F44004C4159425249434B004E2D10
:101BD00056454E5400414C4C4F592039313000503D
:101BE0004354504500425249444745004142530046
:101BF0004849505300504C4100437573746F6D2039
:101C000054656D70004D61696E0045317374707379
:101C10002F6D6D004531737470732F6D6D004573BA
:101C2000746570732F6D6D004573746570732F6DDF
:101C30006D005A73746570732F6D6D005A737465FF
:101C400070732F6D6D005973746570732F6D6D0017
:101C50005973746570732F6D6D005873746570736C
:101C60002F6D6D005873746570732F6D6D00412D6D
:101C70007265747261637400412D72657472616380
:101C80007400416D6178206500416D6178206500C8
:101C9000416D6178207A00416D6178207A00416D54
:101CA0006178207900416D6178207900416D61781B
:101CB000207800416D61782078005654726176205A
:101CC0006D696E005654726176206D696E00566DB6
:101CD000696E00566D696E00566D6178206500561C
:101CE0006D6178206500566D6178207A00566D61CF
:101CF00078207A00566D6178207900566D617820E1
:101D00007900566D6178207800566D6178207800F2
:101D100056652D6A65726B0056652D6A65726B009B
:101D2000567A2D6A65726B00567A2D6A65726B0061
:101D30005678792D6A65726B005678792D6A6572CE
:101D40006B00416363656C00416363656C005A20FE
:101D50004F6666736574005A204F6666736574003B
:101D6000436F6E66696775726174696F6E00526564
:101D700073746F7265204661696C73616665004CAF
:101D80006F6164206D656D6F72790053746F726559
:101D9000206D656D6F727900416476616E63656474
:101DA0002053657474696E6773004D61696E004DF0
:101DB000383420582059205A2045004D3234004DE7
:101DC000323320257300F92E2E004D61696E004ECE
:101DD0006F2043617264005072696E742066726F86
:101DE0006D2053440053746F70205072696E7400FC
:101DF000526573756D65205072696E74005061751F
:101E00007365205072696E7400436F6E6669677502
:101E1000726174696F6E0054656D7065726174757E
:101E20007265004D6F76656D656E740054756E65F4
:101E300000496E666F2073637265656E0000060967
:101E400000FE070199032B20FFFE08FE07FE00009D
:101E500000060000010707060200808080808000E5
:101E600080030303060104A0A0A0050707060000E5
:101E70005050F850F850500507070600002070A099
:101E80007028702005070706000048A8502050A8B9
:101E90009005070706000040A0A040A89068010335
:101EA00003060204808080030707060100204080AB
:101EB000808040200307070601008040202020404A
:101EC000800505050600018850F8508805050506BF
:101ED00000012020F820200303030601FF6040805A
:101EE000050101060003F80303030601FF40E0407B
:101EF0000507070600000808102040808005070736
:101F0000060000205088888850200507070600003A
:101F10002060A0202020F805070706000070880830
:101F2000304080F8050707060000F80810300888E0
:101F30007005070706000010305090F810100507D4
:101F400007060000F880B0C808887005070706007B
:101F500000304080B0C88870050707060000F80808
:101F60001010204040050707060000708888708820
:101F700088700507070600007088986808106003DD
:101F800007070601FF40E0400040E0400307070666
:101F900001FF40E040006040800407070601001098
:101FA000204080402010050303060002F800F804DA
:101FB0000707060100804020102040800507070623
:101FC0000000708810202000200507070600007020
:101FD0008898A8B080700507070600002050888800
:101FE000F88888050707060000F04848704848F060
:101FF0000507070600007088808080887005070745
:10200000060000F04848484848F005070706000069
:10201000F88080F08080F8050707060000F88080CF
:10202000F08080800507070600007088808098880F
:1020300070050707060000888888F88888880307E5
:1020400007060100E04040404040E0050707060069
:1020500000381010101090600507070600008890E7
:10206000A0C0A090880507070600008080808080BF
:1020700080F80507070600008888D8A888888805A2
:1020800007070600008888C8A898888805070706FB
:10209000000070888888888870050707060000F0AF
:1020A0008888F08080800508080600FF708888888E
:1020B00088A87008050707060000F08888F0A0903F
:1020C000880507070600007088807008887005077B
:1020D00007060000F8202020202020050707060022
:1020E0000088888888888870050707060000888827
:1020F0008850505020050707060000888888A8A847
:10210000D888050707060000888850205088880571
:1021100007070600008888502020202005070706B2
:102120000000F80810204080F8030707060100E0CF
:102130008080808080E005070706000080804020C6
:10214000100808030707060100E02020202020E0F7
:102150000503030600042050880501010600FFF86E
:10216000020202060206804005050506000070080E
:102170007888780507070600008080B0C888C8B056
:1021800005050506000070888088700507070600B1
:10219000000808689888986805050506000070889A
:1021A000F88070050707060000304840F0404040C6
:1021B0000507070600FE78888878088870050707F5
:1021C0000600008080B0C8888888030707060100E1
:1021D0004000C0404040E00409090601FE10003004
:1021E000101010909060050707060000808088900E
:1021F000E09088030707060100C04040404040E0EF
:10220000050505060000D0A8A8A888050505060054
:1022100000B0C88888880505050600007088888891
:10222000700507070600FEB0C888C8B080800507A3
:10223000070600FE689888986808080505050600E6
:1022400000B0C88080800505050600007080700819
:10225000F00507070600004040F040404830050503
:10226000050600008888889868050505060000882E
:10227000885050200505050600008888A8A850054C
:10228000050506000088502050880507070600FE57
:1022900088889868088870050505060000F81020F1
:1022A00040F8040707060100304020C020403001FC
:1022B0000707060200808080808080800407070670
:1022C0000100C02040304020C00503030600044840
:1022D000A8900000000100000000000100000000C4
:1022E00000010000000000010000000000010000EB
:1022F00000000001000000000001000000000001DB
:1023000000000000000100000000000100000000CB
:1023100000010000000000010000000000010000BA
:1023200000000001000000000001000000000001AA
:10233000000000000001000000000001000000009B
:10234000000100000000000100000000000100008A
:10235000000000010000000000010000000000017A
:10236000000000000001000000000001000000006B
:10237000000100000000000100000000000100005A
:10238000000000010000000000010000000000014A
:10239000000000000001000000000006000001072E
:1023A0000706020080008080808080050707060005
:1023B000FF2078A0A0A0782005070706000030487D
:1023C00040E04048B0050505060000887050708860
:1023D0000508080600FF88885020F8202020010703
:1023E00007060200808080008080800508080600C3
:1023F000FF7080E09048380870030101060107A0D3
:102400000507070600007088A8C8A888700406069B
:102410000601017090B05000F0060505060000248A
:1024200048904824040202060102F010040101064B
:102430000103F00507070600007088E8C8C8887027
:10244000050101060007F803030306010440A0404C
:102450000506060600002020F82020F804050506E1
:10246000010360902040F0040505060103E01060C0
:1024700010E002020206020640800506060600FF82
:10248000888888C8B08005070706000078E8E868F3
:10249000282828010101060203800202020602FE2A
:1024A000408003050506010340C04040E0040606E5
:1024B0000601016090906000F0060505060000909E
:1024C000482448900609090600FF40C04040E40C3B
:1024D000143C040609090600FF40C04040E814040B
:1024E000081C0509090600FFC0204020C8182878EC
:1024F0000805070706000020002020408870050816
:10250000080600004020708888F8888805080806BA
:1025100000001020708888F88888050808060000E8
:102520002050708888F8888805080806000048B0A0
:10253000708888F8888805080806000050007088B0
:1025400088F888880508080600002050708888F8F8
:1025500088880607070600003C50909CF0909C0578
:1025600009090600FE708880808088702040050878
:102570000806000040F88080F08080F80508080612
:10258000000010F88080F08080F805080806000040
:1025900020F88080F08080F805080806000050F8D8
:1025A0008080F08080F80308080601008040E04049
:1025B000404040E00308080601002040E040404061
:1025C00040E003080806010040A0E040404040E031
:1025D000030808060100A000E040404040E0050775
:1025E00007060000F04848E84848F00508080600DB
:1025F00000285088C8A89888880508080600004068
:1026000020708888888870050808060000102070EF
:10261000888888887005080806000020507088881F
:102620008888700508080600002850708888888807
:1026300070050808060000500070888888887005BA
:102640000505060000885020508805070706000091
:10265000709898A8C8C8700508080600004020882F
:1026600088888888700508080600001020888888F7
:10267000888870050808060000205000888888882F
:102680007005080806000050008888888888700552
:102690000808060000102088885020202005070721
:1026A00006000080F088F0808080050707060000A3
:1026B000708890A09088B0050808060000402000AF
:1026C0007008788878050808060000102000700857
:1026D000788878050808060000205000700878887F
:1026E00078050808060000285000700878887805EA
:1026F000070706000050007008788878050808066B
:102700000000205020700878887806050506000033
:1027100078147C907C0507070600FE70888088701E
:1027200020400508080600004020007088F88070EE
:102730000508080600001020007088F88070050861
:10274000080600002050007088F880700507070612
:10275000000050007088F8807003080806010080AF
:102760004000C0404040E0030808060100408000EF
:10277000C0404040E003080806010040A000C040FF
:102780004040E0060A0A0600FEA4A800FC848080FF
:102790008084FC060A0A0600FE549400FC840404AB
:1027A0000484FC050808060000285000B0C888888A
:1027B000880508080600004020007088888870049A
:1027C0000A0A0602FE30408090909090909090040B
:1027D0000A0A0600FEC020109090909090909006FB
:1027E0000707060001448C8C8480403C06070706DE
:1027F000000188C4C4840408F00505050600012012
:1028000000F8002005080806000040F0C8888898F5
:102810007810050808060000E0F88888888888F89D
:102820000505050600012030F830200508080600DF
:10283000002070F820202020E00509090600FF2074
:1028400070A8A8B8888850200509090600FFE08014
:10285000C0B0A8A83028280509090600FFF8A888F4
:1028600088888888A8F8050A0A0600FE205050507B
:102870005088A8A8887000060900FE06018902FE9B
:1028800020FFFE07FE06FE00000006000701060608
:10289000060200808080800080030303060103A0FD
:1028A000A0A00507070600FF5050F850F85050054B
:1028B00009090600FE2070A8A07028A8702006084C
:1028C000080600FF40A848102048540805070706DE
:1028D00000FF6090906098906801030306020380F7
:1028E00080800207070602FF4080808080804002CF
:1028F00007070602FF80404040404080050505066E
:1029000000008850F850880505050600002020F8D2
:1029100020200204040602FEC0404080050101069A
:102920000002F8020202060200C0C0040606060108
:102930000010102040808004060606010060909080
:1029400090906003060606010040C0404040E0044D
:1029500006060601006090102040F00406060601FD
:1029600000F020601010E005060606000010305050
:1029700090F810040606060100F080E01010E00454
:1029800006060601006080E09090600406060601DD
:1029900000F0101020404004060606010060906020
:1029A000909060040606060100609090701060022E
:1029B0000505060200C0C000C0C00207070602FEEF
:1029C000C0C000C0404080050505060000186080BA
:1029D0006018050303060001F800F8050505060068
:1029E00000C0300830C00407070601006090106086
:1029F0004000400506060600007090A8B0807005F3
:102A00000606060000205088F8888805060606009D
:102A100000F088F08888F0040606060100609080C7
:102A2000809060040606060100E090909090E0041B
:102A30000606060100F080E08080F004060606012C
:102A400000F080E08080800406060601006090802F
:102A5000B090600406060601009090F090909003FC
:102A60000606060100E040404040E005060606007C
:102A70000038101010906004060606010090A0C0F7
:102A8000A090900406060601008080808080F005FA
:102A9000060606000088D8A8A8888804060606014D
:102AA0000090D0B0909090050606060000708888CF
:102AB000888870040606060100E09090E08080049B
:102AC00007070601FF609090D0B06010040606066C
:102AD0000100E09090E090900406060601006090EE
:102AE00040209060050606060000F82020202020E7
:102AF0000406060601009090909090600406060679
:102B00000100909090F0606005060606000088883D
:102B1000A8A8D888050606060000885020205088FE
:102B200005060606000088885020202004060606B8
:102B30000100F010204080F0030606060100E0804E
:102B4000808080E00406060601008080402010108E
:102B5000030606060100E020202020E0050303060E
:102B600000032050880501010600FEF8020202065B
:102B70000204804004040406010070909070040672
:102B8000060601008080E09090E004040406010045
:102B9000708080700406060601001010709090701E
:102BA00004040406010060B0C070040606060100BB
:102BB000205040E040400406060601FE6090907000
:102BC00010600406060601008080E09090900306E5
:102BD000060601004000C04040E00308080601FE70
:102BE000200060202020A04004060606010080800E
:102BF000A0C0A090030606060100C040404040E08F
:102C0000050404060000D0A8A888040404060100F6
:102C1000E090909004040406010060909060040627
:102C2000060601FEE09090E080800406060601FEA4
:102C3000709090701010040404060100A0D08080F1
:102C400004040406010070C030E00406060601001A
:102C50004040E04050200404040601009090907031
:102C6000040404060100909060600504040600005E
:102C700088A8A8500404040601009060609004062F
:102C8000060601FE90909070906004040406010016
:102C9000F02040F00307070601002040408040403C
:102CA000200107070602FF80808080808080030764
:102CB00007060100804040204040800402020601D7
:102CC0000350A0FFFFFFFFFFFFFFFFFFFFFFFFFF1E
:102CD000FFFFFFFFFFFFFFFFFFFFFFFFFFFFFFFF04
:102CE000FFFFFFFF000000060007010606060200C6
:102CF0008000808080800406060601FF2070A0A06E
:102D000070200507070600FF304840F04040F805F6
:102D10000505060000A8508850A805060606000014
:102D20008850F820F8200107070602FF8080800005
:102D30008080800407070601FF708060906010E0CB
:102D4000030101060105A006070706000078849428
:102D5000A494847803050506010160A06000E005E5
:102D600005050600002850A05028040303060100B2
:102D7000F01010040101060102F00607070600002A
:102D80007884B4A4A48478040101060105F0040346
:102D9000030601026090600507070600FF2020F887
:102DA000202000F803050506010140A02040E003B3
:102DB0000505060101C0204020C0020202060204EF
:102DC00040800405050601FF9090B0D080050606FE
:102DD00006000078E8E86828280101010602028060
:102DE0000202020602FE408003050506010140C002
:102DF0004040E003050506010140A04000E0050554
:102E000005060000A0502850A00508080600FF4055
:102E1000C04050703078100508080600FF40C040E0
:102E200050680810380508080600FFC0204030F040
:102E300030781004070706010020002060809060B1
:102E40000507070600004020205070888805070706
:102E50000600001020205070888805070706000033
:102E60002050205070888805070706000028502051
:102E700050708888050707060000500020507088B1
:102E80008805070706000020502050708888050636
:102E90000606000078A0F0A0A0B80408080601FE0D
:102EA0006090808090602040040707060100402069
:102EB000F080E080F00407070601002040F080E089
:102EC00080F00407070601002050F080E080F00445
:102ED00007070601005000F080E080F003070706B6
:102EE00001008040E0404040E00307070601002069
:102EF00040E0404040E003070706010040A0E040FA
:102F00004040E0030707060100A000E0404040E029
:102F10000506060600007048E848487004070706E2
:102F2000010050A090D0B090900407070601004027
:102F30002060909090600407070601002040609098
:102F40009090600407070601002050609090906008
:102F500004070706010050A06090909060040707E6
:102F60000601005000609090906005050506000085
:102F700088502050880408080601FF1070B0B0D0B7
:102F8000D0E08004070706010040209090909060F8
:102F90000407070601002040909090906004070706
:102FA00006010020509090909060040707060100F1
:102FB0005000909090906005070706000010208850
:102FC0005020202004060606010080E09090E0805A
:102FD0000406060601006090A0A090A00407070662
:102FE0000100402000709090700407070601002047
:102FF0004000709090700407070601002050007098
:1030000090907004070706010050A0007090907027
:103010000406060601005000709090700407070631
:10302000010020502070909070050404060000708C
:10303000A8B0780406060601FE7080807020400467
:10304000070706010040200060B0C07004070706B3
:10305000010020400060B0C0700407070601002096
:10306000500060B0C070040606060100500060B059
:10307000C070030707060100804000C04040E00325
:103080000707060100204000C04040E00307070694
:10309000010040A000C04040E0030606060100A079
:1030A00000C04040E0040707060100306010709047
:1030B000906004070706010050A000E09090900483
:1030C0000707060100402000609090600407070693
:1030D0000100204000609090600407070601002076
:1030E00050006090906004070706010050A0006047
:1030F0009090600406060601005000609090600504
:1031000005050600002000F8002004040406010064
:1031100070B0D0E0040707060100402000909090B6
:10312000700407070601002040009090907004078B
:1031300007060100205000909090700406060601DA
:10314000005000909090700409090601FE20400094
:103150009090907090600408080601FE8080E090D6
:1031600090E080800408080601FE50009090907066
:1031700090600000000000000000000000007FFFE1
:10318000E00000000000000000000000007000E00F
:1031900000000000000000000000000061F8600076
:1031A000000000000000000000000041F8200000C6
:1031B0000000000000000000000040F020000000BF
:1031C000000000000000000000406020000000003F
:1031D00000000000000000005801A07F80003FC0F8
:1031E000003FC0004104005C63A0FBC00079E00028
:1031F00079E0002082005EF7A0F3C00076E0007660
:10320000E0002082005EF7A0EBC0007EE0007EE0E0
:10321000004104005C63A07B80003DC00039C00019
:103220008208005801A07B80003BC0003EC0010422
:103230001000406020FBC00077E00076E001041041
:103240000040F020FBC00070E00079E00082080040
:1032500041F820FFC0007FE0007FE00041040061F2
:10326000F8603F00001F80001F8000000000700019
:10327000E01E00000F00000F0001FFFF807FFFE055
:103280000C0000060000060001FFFF8000000000A7
:1032900000000000000000000000007FFFE00000D0
:1032A000000000000000000000007000E0000000CE
:1032B000000000000000000000630C60000000003F
:1032C0000000000000000000470E20000000000089
:1032D000000000000000004F0F2000000000000070
:1032E0000000000000005F0FA000000000000000D0
:1032F00000000000005E07A07F80003FC0003FC0CC
:1033000000410400406020FBC00079E00079E0004B
:1033100020820040F020F3C00076E00076E000203C
:10332000820040F020EBC0007EE0007EE00041041F
:10333000004060207B80003DC00039C00082080052
:103340005E07A07B80003BC0003EC0010410005F10
:103350000FA0FBC00077E00076E0010410004F0FE3
:1033600020FBC00070E00079E000820800470E20DA
:10337000FFC0007FE0007FE000410400630C603F7D
:1033800000001F80001F80000000007000E01E0091
:10339000000F00000F0001FFFF807FFFE00C000026
:1033A000060000060001FFFF800000000000000092
:1033B000000000000000000000000000000000000D
:1033C0000000000000000000000000000000000CF1
:1033D000000000000000000C0000000000000012CF
:1033E0000000000000000023000000000000002199
:1033F000000000000000004C800000000000005EA3
:10340000800000000000009240000000000000A1C9
:103410004000000000000121200000000000027FA9
:10342000900000000000020010000000000007FFF4
:10343000F800000000000400080000000000080080
:10344000040000000000080006000000000010005A
:10345000020000000000301E010000000000207F7C
:1034600081000000000041FFE0800000000043FCFC
:10347000F08000000000873B7840000000018EDBF8
:10348000FC60000000010FEBCC20000000021FEDEB
:10349000B610000000021FDEB6100000000439CD97
:1034A0007F080000000436E0FF08000000087EC02E
:1034B000BB84000000187F005D86000000107FC004
:1034C000ED82000000203CC07301000000203B336F
:1034D0007F01000000701BE77E03800000C81DEE26
:1034E000DE04C00000880FDEDC04400001240FDF92
:1034F0003C092000012607DBF8192000027203E7CF
:10350000F0139000025101FFE02290000489007F37
:10351000802448000904801E004824000BFE40005F
:1035200000DFF40010004000008002001FFFFFFFDA
:10353000FFFFFE000000000000000000000000008F
:103540000000000000000000000000001022103CFD
:103550003C0E1F001022100422110400102210083B
:1035600022110400102210083C1104001022101037
:103570002211040010221020221104001E1C1E3CE7
:103580003C0E0400000000000000000000000000ED
:10359000000000000000000000000000000000002B
:1035A000000000000000000000000000000000001B
:1035B000000000000000000000000000000000000B
:1035C00000000000000000000000000000000000FB
:1035D00000000000000000000000000000000000EB
:1035E0000000000000000000000001050800FF06C8
:1035F0000121023520FFFF07FF06FF0900502216B8
:1036000056808080800080153353A0A0A0025757B9
:103610005050F850F850500257572070A070287042
:103620002013355580A040A02002475740A0A0405D
:10363000A0A05025135380808012265640808080A1
:1036400080401226568040404040800245559060A0
:10365000F060900255552020F8202011335360402F
:1036600080044151F011335340E04002465610109F
:103670002040808012365640A0A0A0A040123656AE
:1036800040C0404040E00246566090106080F0022A
:103690004656F020601090600246562060A0F02050
:1036A00020024656F080E01090600246566080E0AE
:1036B000909060024656F01020204040024656602E
:1036C0009060909060024656609090701060122555
:1036D00055C0C000C0C01136566060006040801206
:1036E0003656204080804020034353F000F01236CD
:1036F0005680402020408012365640A02040004096
:10370000015858304898A8A890403002465660901A
:1037100090F09090024656E090E09090E00246567D
:10372000609080809060024656E090909090E00219
:103730004656F080E08080F0024656F080E08080BF
:1037400080024656609080B090600246569090F09D
:10375000909090123656E040404040E0024656704D
:10376000202020A04002465690A0C0A0A090024673
:10377000568080808080F002465690F0F0909090C5
:1037800002465690D0F0B0B09002465660909090AD
:103790009060024656E09090E0808001475760902C
:1037A00090D0B06010024656E09090E090900246B3
:1037B00056609040209060123656E04040404040B5
:1037C000024656909090909060024656909090904D
:1037D0006060024656909090F0F0900246569090AD
:1037E00060609090025656888850202020024656ED
:1037F000F010204080F0123656E080808080E00299
:103800004656808040201010123656E0202020209E
:10381000E016325240A0014151F01622528040027F
:103820004454709090700246568080E09090E01270
:103830003454608080600246561010709090700280
:10384000445460B0C060024656205040E040400101
:10385000455560907010600246568080E0909090D0
:103860001236564000C04040E0113757200020205B
:1038700020A040024656808090E09090123656C0BC
:1038800040404040E0025454D0A8A8A8024454E06C
:1038900090909002445460909060014555E090E013
:1038A00080800145557090701010024454A0D08063
:1038B0008012345460C020C00246564040E0405060
:1038C0002002445490909070123454A0A0A0400262
:1038D000545488A8A8500244549060609001455503
:1038E0009090709060024454F02040F002475730AE
:1038F0004020C02040302216568080808080800288
:103900004757C02040304020C006425250A0FFFF21
:10391000FFFFFFFFFFFFFFFFFFFFFFFFFFFFFFFFB7
:10392000FFFFFFFFFFFFFFFFFFFFFFFFFFFFFF099D
:1039300000502216568000808080800146562070FC
:10394000A0A070200246562050E04050A0025555DD
:1039500088705070880256568850F820F820221738
:1039600057808080008080800247577080E0907090
:1039700010E0173151A002565670A8C8C8A870149C
:10398000355560A06000E003435350A050123353FC
:10399000E02020143151E002565670E8D8E8D87083
:1039A000173151E015335340A04012355540E040E7
:1039B00000E014355540A02040E0143555C020C02B
:1039C00020C01622524080014555909090E0800220
:1039D000565678E8E8682828241151801122524070
:1039E0008014355540C04040E014355540A040009B
:1039F000E0034353A050A0024757808080A060F0AE
:103A0000200247578080A0D0102070024757804086
:103A10008060A0F02012365640004080A04002474F
:103A20005740206090F0909002475720406090F0FF
:103A3000909002475760906090F0909002475750E6
:103A4000A06090F0909002475790006090F09090A6
:103A500002475760906090F0909002465670A0A088
:103A6000F0A0B001475760908080906040024757B7
:103A70004020F080E080F00247572040F080E08056
:103A8000F00247576090F080E080F00247579000C6
:103A9000F080E080F01237578040E0404040E01274
:103AA00037572040E0404040E012375740A0E04008
:103AB0004040E0123757A000E0404040E002565638
:103AC0007048E848487002475750A090D0B0909096
:103AD0000247574020609090906002475720406016
:103AE000909090600247576090609090906002477D
:103AF0005750A0609090906002475790006090905F
:103B00009060123353A040A002465670B0B0D0D09F
:103B1000E002475740209090909060024757204025
:103B200090909090600247576090909090906002C3
:103B300047579000909090906002575710208850FF
:103B400020202002465680E09090E0800246566099
:103B500090A0A090A0024757402000709090700263
:103B600047572040007090907002475720500070D7
:103B700090907002475750A0007090907002465687
:103B800050007090907002475760906070909070F5
:103B9000025454F068B0781135556080806040025E
:103BA000475740200060B0C0600247572040006087
:103BB000B0C06002475760900060B0C060024656D7
:103BC000500060B0C060123757804000C04040E0F5
:103BD000123757204000C04040E012375740A00045
:103BE000C04040E0123656A000C04040E0024757B7
:103BF000A040A01070906002475750A000E0909045
:103C00009002475740200060909060024757204044
:103C10000060909060024757609000609090600252
:103C2000475750A000609090600246569000609008
:103C300090601235554000E0004002445470B0D00E
:103C4000E002475740200090909070024757204074
:103C50000090909070024757609000909090700292
:103C600046569000909090700148582040009090E7
:103C70007090600147578080E090E0808001475756
:103C80009000909070906000000A0B02090C0D0EDD
:103C9000080703040100000000000000000000000D
:103CA0000000000000000000000000000000000014
:103CB00000000012111000000000000000000000D1
:103CC00000000000000000000000000000000000F4
:103CD00000000000000000000000000000010210D1
:103CE0002020080810204010204080020102010816
:103CF00004020101020408102040808040201008C6
:103D0000040201800402018040201008040201081E
:103D1000040201010204081020408001020408107E
:103D200020408010080408801020400440801020AB
:103D30004004800505050507050808080802020279
:103D4000020A0A0808040404040101010101010136
:103D5000010303030303030303040707070C0C0C0D
:103D60000C0C0C0C0C0202020206060606060606E5
:103D7000060B0B0B0B0B0B0B0B07070A0A0A0A0AA5
:103D80000A05050504040408080000200023002695
:103D90000029002C002F0032000001000003010662
:103DA00001090100002200250028002B002E00310F
:103DB00000340002010000050108010B0100002190
:103DC00000240027002A002D0030003300010100EC
:103DD00000040107010A01024E414E494E4954595F
:103DE000494E46CDCCCC3D0AD7233C17B7D13877C6
:103DF000CC2B329595E6241FB14F0A0000204100DC
:103E000000C84200401C4620BCBE4CCA1B0E5AAE25
:103E1000C59D74002B4E51F52F4E11241FBECFEFC0
:103E2000D1E2DEBFCDBF00E00CBF14E0A0E0B2E005
:103E3000E0EBFAE102E00BBF02C007900D92A03A5E
:103E4000B107D9F725E1A0EAB4E001C01D92A8327C
:103E5000B207E1F71EE3C8E1DEE300E006C0229707
:103E60000109FE010BBF0F941E07C431D10780E08A
:103E70000807A9F70F9402020D94470D0C94000057
:103E8000EF92FF920F931F93CF93DF931F92CDB7C3
:103E9000DEB78C017B01460FF70161917F01F801CC
:103EA0008081918149830F94900CF80180819181E8
:103EB00001969183808349814E11EECF0F90DF915F
:103EC000CF911F910F91FF90EF900895EF92FF9285
:103ED0000F931F93CF93DF931F92CDB7DEB78C0163
:103EE0007B01460FF8018081918149830F94880CF2
:103EF000F70181937F01F80180819181019691837F
:103F0000808349814E11EECF0F90DF91CF911F91A9
:103F10000F91FF90EF9008950F931F93CF93DF932E
:103F2000CDB7DEB72A970FB6F894DEBF0FBECDBF70
:103F300080E390E3A0E3B0E08D839E83AF83B887F6
:103F400004E610E01A87098744E0BE016B5F7F4FEB
:103F5000CE01099695DF40E163E571E1CE01099656
:103F60008FDF44E06FE471E1CE01099689DF40E123
:103F700063E671E1CE01099683DF40E16FE371E111
:103F8000CE0109967DDF44E067E371E1CE01099639
:103F900077DF44E063E371E1CE01099671DF44E02D
:103FA0006BE371E1CE0109966BDF44E063E271E1FE
:103FB000CE01099665DF44E063E771E1CE01099621
:103FC0005FDF44E06FE271E1CE01099659DF44E022
:103FD0006BE271E1CE01099653DF44E067E271E1E3
:103FE000CE0109964DDF4CE06BE177E0CE010996FA
:103FF00047DF42E06AEE74E1CE01099641DF42E01C
:1040000068EE74E1CE0109963BDF42E066EE74E1B2
:10401000CE01099635DF42E064EE74E1CE010996E7
:104020002FDF42E062EE74E1CE01099629DF42E023
:1040300060EE74E1CE01099623DF42E06EED74E19B
:10404000CE0109961DDF42E06CED74E1CE010996C8
:1040500017DF42E06AED74E1CE01099611DF42E01C
:1040600068ED74E1CE0109960BDF42E066ED74E184
:10407000CE01099605DF42E064ED74E1CE010996B8
:10408000FFDE42E062ED74E1CE010996F9DE42E026
:1040900060ED74E1CE010996F3DE42E06EEC74E16E
:1040A000CE010996EDDE42E06CEC74E1CE0109969A
:1040B000E7DE42E06AEC74E1CE010996E1DE42E01F
:1040C00068EC74E1CE010996DBDE42E066EC74E157
:1040D000CE010996D5DE42E064EC74E1CE0109968A
:1040E000CFDE42E062EC74E1CE010996C9DE42E027
:1040F00060EC74E1CE010996C3DE42E06EEB74E140
:10410000CE010996BDDE42E06CEB74E1CE0109966A
:10411000B7DE42E06AEB74E1CE010996B1DE42E01F
:1041200068EB74E1CE010996ABDE42E066EB74E128
:10413000CE010996A5DE42E064EB74E1CE0109965A
:104140009FDE42E062EB74E1CE01099699DE42E027
:1041500060EB74E1CE01099693DE42E06EEA74E111
:10416000CE0109968DDE42E06CEA74E1CE0109963B
:1041700087DE42E06AEA74E1CE01099681DE44E01E
:1041800068E077E0CE0109967BDE44E068E672E005
:10419000CE01099675DE44E064E672E0CE01099630
:1041A0006FDE44E060E672E0CE01099669DE42E02F
:1041B00067EA72E1CE01099663DE86E591E3A9E341
:1041C000B0E089839A83AB83BC831A87098744E074
:1041D000BE016F5F7F4FCE01099652DEEAEBF3E03E
:1041E0008491882341F09091C00095FFFCCF80938B
:1041F000C6003196F5CFEAEAF3E08491882341F0D6
:104200009091C00095FFFCCF8093C6003196F5CF0A
:104210008091C00085FFFCCF8AE08093C6002A967B
:104220000FB6F894DEBF0FBECDBFDF91CF911F91C7
:104230000F910895CF93DF93CAEBD3E0FE018491F1
:10424000882341F09091C00095FFFCCF8093C60079
:104250003196F5CFEAE9F3E08491882341F090911B
:10426000C00095FFFCCF8093C6003196F5CF8091BA
:10427000C00085FFFCCF8AE08093C600FE018491D8
:10428000EAEBF3E0882349F09091C00095FFFCCF62
:104290008093C60031968491F5CF4091531150918F
:1042A0005411609155117091561182E993E00E946A
:1042B0000D2B4091571150915811609159117091E7
:1042C0005A118FE893E00E940D2B40915B115091A1
:1042D0005C1160915D1170915E118CE893E00E9419
:1042E0000D2B40915F11509160116091611170919F
:1042F000621189E893E00E940D2B40914F1150917B
:104300005011609151117091521185E893E00E9413
:104310000D2B8091C00085FFFCCF8AE08093C60002
:10432000FE018491EAEBF3E0882349F09091C0000C
:1043300095FFFCCF8093C60031968491F5CFEBE6D4
:10434000F3E08491882341F09091C00095FFFCCF69
:104350008093C6003196F5CF8091C00085FFFCCFD9
:104360008AE08093C600FE018491EAEBF3E08823A3
:1043700049F09091C00095FFFCCF8093C600319624
:104380008491F5CF40916311509164116091651152
:104390007091661182E693E00E940D2B40916711A7
:1043A000509168116091691170916A118FE593E0E5
:1043B0000E940D2B40916B1150916C1160916D1109
:1043C00070916E118CE593E00E940D2B40916F115E
:1043D00050917011609171117091721189E593E0A3
:1043E0000E940D2B8091C00085FFFCCF8AE0809356
:1043F000C600FE018491EAEBF3E0882349F0909136
:10440000C00095FFFCCF8093C60031968491F5CF14
:10441000EBE3F3E08491882341F09091C00095FF95
:10442000FCCF8093C6003196F5CF8091C00085FF08
:10443000FCCF8AE08093C600FE018491EAEBF3E0B2
:10444000882349F09091C00095FFFCCF8093C6006F
:1044500031968491F5CF40913F1150914011609178
:1044600041117091421182E393E00E941E2B409112
:1044700043115091441160914511709146118FE2A2
:1044800093E00E941E2B409147115091481160917A
:10449000491170914A118CE293E00E941E2B4091C9
:1044A0004B1150914C1160914D1170914E1189E258
:1044B00093E00E941E2B8091C00085FFFCCF8AE014
:1044C0008093C600FE018491EAEBF3E0882349F073
:1044D0009091C00095FFFCCF8093C60031968491E7
:1044E000F5CFE4EFF2E08491882341F09091C00091
:1044F00095FFFCCF8093C6003196F5CF8091C00028
:1045000085FFFCCF8AE08093C600FE018491EAEB30
:10451000F3E0882349F09091C00095FFFCCF809391
:10452000C60031968491F5CF4091371150913811E2
:104530006091391170913A118BEE92E00E940D2B2F
:1045400040913311509134116091351170913611B1
:1045500088EE92E00E940D2B8091C00085FFFCCF79
:104560008AE08093C600FE018491EAEBF3E08823A1
:1045700049F09091C00095FFFCCF8093C600319622
:104580008491F5CFE5E3F2E08491882341F09091A6
:10459000C00095FFFCCF8093C6003196F5CF809187
:1045A000C00085FFFCCF8AE08093C600FE018491A5
:1045B000EAEBF3E0882349F09091C00095FFFCCF2F
:1045C0008093C60031968491F5CF40913B11509174
:1045D0003C1160913D1170913E118CE292E00E947D
:1045E0000D2B409123115091241160912511709150
:1045F000261189E292E00E940D2B40917311509197
:104600007411609175117091761186E292E00E94AA
:104610001E2B40912F1150913011609131117091EA
:10462000321183E292E0F9D740912B1150912C1175
:1046300060912D1170912E1180E292E0EED74091A1
:104640002711509128116091291170912A118DE143
:1046500092E0E3D78091C00085FFFCCF8AE0809391
:10466000C600FE018491EAEBF3E0882349F09091C3
:10467000C00095FFFCCF8093C60031968491F5CFA2
:10468000EBE0F2E08491882341F09091C00095FF27
:10469000FCCF8093C6003196F5CF8091C00085FF96
:1046A000FCCF8AE08093C600FE018491EAEBF3E040
:1046B000882349F09091C00095FFFCCF8093C600FD
:1046C00031968491F5CF40911B0750911C07609162
:1046D0001D0770911E0782E092E09FD740911F074F
:1046E0005091200760912107709122078FEF91E090
:1046F00094D740912307509124076091250770912A
:1047000026078CEF91E089D78091C00085FFFCCF10
:104710008AE08093C600FE018491EAEBF3E08823EF
:1047200049F09091C00095FFFCCF8093C600319670
:104730008491F5CFEEEEF1E08491882341F09091E1
:10474000C00095FFFCCF8093C6003196F5CF8091D5
:10475000C00085FFFCCF8AE08093C600FE01C491B3
:10476000EAEBF3E0CC2349F08091C00085FFFCCF59
:10477000C093C6003196C491F5CF40916802509124
:10478000690260916A0270916B0284EE91E045D7F4
:104790006091640270916502809166029091670257
:1047A0000E940893AB01BC0181EE91E036D7609185
:1047B00060027091610280916202909163020E9496
:1047C0001493AB01BC018EED91E027D78091C0001E
:1047D00085FFFCCF8AE08093C600DF91CF910895DA
:1047E000AF92BF92CF92DF92EF92FF920F931F93FF
:1047F000CF93DF93CDB7DEB7E0970FB6F894DEBF67
:104800000FBECDBF80E1E3E9F2E0DE0191960190B9
:104810000D928A95E1F780E1E3EAF2E0DE0151963C
:1048200001900D928A95E1F780E1E3EBF2E0DE0181
:10483000119601900D928A95E1F76E0181E2C80E02
:10484000D11C83E5E82E81E1F82E8E010F5E1F4F0B
:1048500063E671E1AE014F5F5F4F9FE3A92E91E1E7
:10486000B92E20E030E0F60181919191A191B191B2
:104870006F01F70181939193A193B1937F01F801A7
:1048800081919191A191B1918F01FB0181939193BC
:10489000A193B193BF01FA0181919191A191B1913D
:1048A000AF01F50181939193A193B1935F012F5FC4
:1048B0003F4F24303105B9F60E94A97C80E090E09A
:1048C000A8E4B4E480934F1190935011A093511138
:1048D000B093521180E090E0AAEFB3E480933711D7
:1048E00090933811A0933911B0933A1180E090E879
:1048F000ABE3B5E48093331190933411A093351159
:10490000B093361110923B1110923C1110923D1150
:1049100010923E1180E29EE4A0E0B0E0809373111B
:1049200090937411A0937511B09376111092231186
:1049300010922411109225111092261180E090E01F
:10494000A0E0B1E480932F1190933011A093311126
:10495000B09332118DEC9CECACECBEE380932B1148
:1049600090932C11A0932D11B0932E1180E090E024
:10497000A0E2B1E48093271190932811A09329110C
:10498000B0932A1110922307109224071092250742
:104990001092260710921F071092200710922107ED
:1049A0001092220710921B0710921C0710921D07ED
:1049B00010921E078DEC90E09093EB148093EA1414
:1049C0008CE390E09093E9148093E8141092E7143C
:1049D0001092E61420EF30E03093E5142093E414B5
:1049E0004EE650E05093E3144093E2141092E11429
:1049F0001092E0143093DF142093DE145093DD14F2
:104A00004093DC141092DB141092DA143093D91412
:104A10002093D81464E670E07093D7146093D61492
:104A20001092D5141092D414EBEEF0E0F093D3145E
:104A3000E093D2147093D1146093D0141092CF14D9
:104A40001092CE143093CD142093CC147093CB14C9
:104A50006093CA141092C9141092C814F093C7142A
:104A6000E093C6149093C5148093C4141092C31499
:104A70001092C2142EEB30E03093C1142093C01476
:104A80009093BF148093BE141092BD141092BC1466
:104A90003093BB142093BA149093B9148093B81434
:104AA0001092B7141092B61422E231E03093B5148C
:104AB0002093B4145093B3144093B2141092B114D1
:104AC0001092B01425EF30E03093AF142093AE1461
:104AD0009093AD148093AC141092AB141092AA145E
:104AE00080E290E09093A8128093A71280E090E07B
:104AF000A0ECB0E48093680290936902A0936A02EC
:104B0000B0936B026AE979E989E99EE30E94029316
:104B100060936402709365028093660290936702CB
:104B200060E070E08AEF92E40E940E93609360026E
:104B30007093610280936202909363020E94DC880A
:104B400080E090E0A0E8BFE380935C0290935D0278
:104B5000A0935E02B0935F02EAEBF3E084918823B6
:104B600041F09091C00095FFFCCF8093C600319634
:104B7000F5CFE2EAF1E08491882341F09091C00002
:104B800095FFFCCF8093C6003196F5CF8091C00091
:104B900085FFFCCF8AE08093C600E0960FB6F894BC
:104BA000DEBF0FBECDBFDF91CF911F910F91FF9060
:104BB000EF90DF90CF90BF90AF900895CF93DF93A9
:104BC000CDB7DEB72A970FB6F894DEBF0FBECDBFC4
:104BD00084E690E09A87898786E591E3A9E3B0E0CF
:104BE00089839A83AB83BC8344E0BE016B5F7F4FB4
:104BF000CE0109966BD943E050E0BE016B5F7F4F59
:104C0000CE0101960F944F0A892B09F058C140E15B
:104C100063E571E1CE01099659D944E06FE471E191
:104C2000CE01099653D940E163E671E1CE010996C0
:104C30004DD940E16FE371E1CE01099647D90E9459
:104C4000A97C44E067E371E1CE0109963FD944E0D5
:104C500063E371E1CE01099639D944E06BE371E178
:104C6000CE01099633D944E063E271E1CE010996A1
:104C70002DD944E063E771E1CE01099627D944E0DC
:104C80006FE271E1CE01099621D944E06BE271E156
:104C9000CE0109961BD944E067E271E1CE01099685
:104CA00015D94CE06BE177E0CE0109960FD942E0CF
:104CB0006AEE74E1CE01099609D942E068EE74E12A
:104CC000CE01099603D942E066EE74E1CE01099661
:104CD000FDD842E064EE74E1CE010996F7D842E0D7
:104CE00062EE74E1CE010996F1D842E060EE74E123
:104CF000CE010996EBD842E06EED74E1CE01099643
:104D0000E5D842E06CED74E1CE010996DFD842E0CF
:104D10006AED74E1CE010996D9D842E068ED74E1FC
:104D2000CE010996D3D842E066ED74E1CE01099632
:104D3000CDD842E064ED74E1CE010996C7D842E0D7
:104D400062ED74E1CE010996C1D842E060ED74E1F4
:104D5000CE010996BBD842E06EEC74E1CE01099613
:104D6000B5D842E06CEC74E1CE010996AFD842E0D0
:104D70006AEC74E1CE010996A9D842E068EC74E1CE
:104D8000CE010996A3D842E066EC74E1CE01099603
:104D90009DD842E064EC74E1CE01099697D842E0D8
:104DA00062EC74E1CE01099691D842E060EC74E1C6
:104DB000CE0109968BD842E06EEB74E1CE010996E4
:104DC00085D842E06CEB74E1CE0109967FD842E0D1
:104DD0006AEB74E1CE01099679D842E068EB74E1A0
:104DE000CE01099673D842E066EB74E1CE010996D4
:104DF0006DD842E064EB74E1CE01099667D842E0D9
:104E000062EB74E1CE01099661D842E060EB74E197
:104E1000CE0109965BD842E06EEA74E1CE010996B4
:104E200055D842E06CEA74E1CE0109964FD842E0D1
:104E30006AEA74E1CE01099649D844E068E077E077
:104E4000CE01099643D844E068E672E0CE010996A7
:104E50003DD844E064E672E0CE01099637D844E0DC
:104E600060E672E0CE01099631D842E067EA72E16D
:104E7000CE0109962BD80E94DC88EAEBF3E08491FE
:104E8000882341F09091C00095FFFCCF8093C6002D
:104E90003196F5CFE4ECF1E08491882341F09091D4
:104EA000C00095FFFCCF8093C6003196F5CF80916E
:104EB000C00085FFFCCF8AE08093C60001C090DC73
:104EC000B9D92A960FB6F894DEBF0FBECDBFDF91D9
:104ED000CF9108951F920F920FB60F9211240BB627
:104EE0000F922F933F934F935F936F938F939F9363
:104EF000EF93FF936091C600209121053091220528
:104F0000C90101968F779927409123055091240577
:104F10008417950741F0F901EF55FB4F608390939B
:104F2000220580932105FF91EF919F918F916F91C1
:104F30005F914F913F912F910F900BBE0F900FBE3D
:104F40000F901F9018959A01AB01211581EE38073B
:104F50004105510549F182E08093C00060E079E0AD
:104F60008DE390E00F94DD0621503109410951098C
:104F7000CA01B90122E030E040E050E00F94DD06C4
:104F80003093C5002093C4008091C100806180935C
:104F9000C1008091C10088608093C1008091C100F0
:104FA00080688093C10008951092C00020E130E035
:104FB000E7CF209123053091240580912105909120
:104FC00022058217930771F0F901EF55FB4F80819D
:104FD0002F5F3F4F2F7733273093240520932305EE
:104FE00090E008958FEF9FEF0895809123059091B1
:104FF0002405909322058093210508954F925F9296
:105000006F927F928F929F92AF92BF92CF92DF92D8
:10501000EF92FF920F931F93CF93DF93CDB7DEB73D
:10502000A0970FB6F894DEBF0FBECDBF5C0141154F
:10503000510561057105E9F420E030E040E350E0FE
:1050400060E070E0A0960FB6F894DEBF0FBECDBF53
:10505000DF91CF911F910F91FF90EF90DF90CF9054
:10506000BF90AF909F908F907F906F905F904F9088
:105070005BC08E010F5F1F4FC12CD12C7601480100
:10508000422E512C612C712C8FEFC81AD80AE80AD5
:10509000F80ACB01BA01A30192010F94BB06CA0121
:1050A000F80161938F01A901BC014115510561050A
:1050B000710551F7F1E0CF1AD108E108F108F401C8
:1050C000EC0DFD1D80818A3010F440E301C047E300
:1050D000480F552747FD5095652F752F20E030E08C
:1050E000C50122D081E0C81AD108E108F108EFEF2C
:1050F000CE16DE06EE06FE0611F7A0960FB6F89461
:10510000DEBF0FBECDBFDF91CF911F910F91FF90FA
:10511000EF90DF90CF90BF90AF909F908F907F9057
:105120006F905F904F9008952115310539F480916B
:10513000C00085FFFCCF4093C60008952A3031059A
:1051400009F41CC05BCFCF93DF93EC0120E030E08B
:105150004DE050E060E070E0E7DF20E030E04AE062
:1051600050E060E070E0CE01DF91CF91DDCF9A0199
:10517000AB01662757FD6095762FD6CFCF92DF9291
:10518000EF92FF92CF93DF93EC016A017B0177FFEF
:105190000FC020E030E04DE250E060E070E0C4DF9E
:1051A000F094E094D094C094C11CD11CE11CF11C7B
:1051B0002AE0B701A601CE01DF91CF91FF90EF90D9
:1051C000DF90CF901BCF2115310539F48091C000BD
:1051D00085FFFCCF4093C600089510CF9A01462F5B
:1051E00050E060E070E0EFCFCF93DF93EC019A01E5
:1051F000AB0160E070E0E7DFCE01DF91CF91A3CF9C
:105200008F929F92AF92BF92CF92DF92EF92FF92D6
:105210001F93CF93DF93EC016A017B01122F20E0F3
:1052200030E0A901C701B6010F94EA0287FF0CC064
:1052300020E030E04DE250E060E070E0CE0174DF4D
:10524000F7FAF094F7F8F094B12C60E070E080E0A9
:105250009FE3B11641F020E030E040E251E40F94CA
:10526000F102B394F6CF9B01AC01C701B6010F94D4
:1052700011026B017C010F945E034B015C010F94E2
:105280008A039B01AC01C701B6010F9410026B01A8
:105290007C012AE0B501A401CE01B0DE112361F04A
:1052A000EFE4F4E08191882339F09091C00095FFFC
:1052B000FCCF8093C600F6CF112319F120E030E037
:1052C00040E251E4C701B6010F94BF056B017C01B8
:1052D0000F9459034B01AA2497FCA094BA2CB50152
:1052E000A401CE014BDFC501B4010F948C039B01D7
:1052F000AC01C701B6010F9410026B017C01115083
:10530000DBCFDF91CF911F91FF90EF90DF90CF9097
:10531000BF90AF909F908F90089572CFFC016591E0
:105320007591859194910895EF92FF920F931F9339
:10533000CF93DF93EC01CC0FDD1FCC0FDD1FCE012F
:10534000855E964FEBDF9E01295D384F79018E0116
:10535000055E184FF80120813181428153810F94FD
:105360001102F7016083718382839383CE018D5C88
:10537000964FD4DF9E01215F384F7901F8012081DB
:105380003181428153810F941102F701608371834F
:1053900082839383CE01895D964FC0DFCF5EDD4F60
:1053A000F80120813181428153810F941102688379
:1053B00079838A839B83DF91CF911F910F91FF9017
:1053C000EF9008952F923F924F925F926F927F924B
:1053D0008F929F92AF92BF92CF92DF92EF92FF9205
:1053E0000F931F93CF93DF9300D01F92CDB7DEB7FB
:1053F0004C01FC01E050F74FB490880F991F880FC3
:10540000991F9C838B83895D984F1C01FC0110823E
:1054100011821282138223E337E04FE257E06BE2FE
:1054200077E087E297E00E94B97B8B819C81815F66
:10543000964F74DF6B017C016B2D772767FD7095AC
:10544000872F972F0F948C032B013C018B819C811C
:105450008E50994F5C0120E030E040EC5FE3C701E3
:10546000B6010F94BF05A30192010F94BF05F5018A
:1054700060837183828393838B819C818B5D9D4F3D
:105480009A838983FC016081718182819381609319
:105490000B0270930C0280930D0290930E0220E099
:1054A00030E040E752E40F94F10237E0C32E37E0DA
:1054B000D32E7B018C012EEF36E04AEF56E066EFEB
:1054C00076E082EF96E00E94CF710E946784F1013E
:1054D000108211821282138223E337E04FE257E0F9
:1054E0006BE277E087E297E00E94B97B8B819C8139
:1054F0008D5F964F9C838B8311DF9058A30192019F
:105500000F94BF05F501608371838283938320E04C
:1055100030E040E752E460910B0270910C02809100
:105520000D0290910E020F94F1027B018C012EEF7F
:1055300036E04AEF56E066EF76E082EF96E00E94B2
:10554000CF710E9467848B819C81E8DE9B01AC0156
:105550000F941102A30192010F94BF05F50160831E
:1055600071838283938320E030E040E05FE3E98150
:10557000FA8160817181828193810F94BF0560936C
:105580000B0270930C0280930D0290930E0220E0A8
:1055900030E040E752E40F94F1027B018C012EEFE2
:1055A00036E04AEF56E066EF76E082EF96E00E9442
:1055B000CF710E946784C401B7DEF10180819181BF
:1055C000A281B381F50180839183A283B38310927A
:1055D0000B0210920C0210920D0210920E020E9409
:1055E000937DF401E45FF84F81E080830F900F908A
:1055F0000F900F90DF91CF911F910F91FF90EF903F
:10560000DF90CF90BF90AF909F908F907F906F90E2
:105610005F904F903F902F900895FC01249122239A
:1056200041F03091C00035FFFCCF2093C6000196B9
:10563000F4CF22E030E080EA94E06FCEFC012491C8
:10564000222341F03091C00035FFFCCF2093C600EB
:105650000196F4CF2AE030E080EA94E0B4CDCF9315
:10566000DF931F921F92CDB7DEB7809122159091E4
:1056700023159E012F5F3F4F009719F428523541A3
:1056800002C0281B390B3A83298389819A810F90A4
:105690000F90DF91CF9108952091470530914805F3
:1056A000243031050CF06AC04091490550914A05FB
:1056B00060E6649F9001659F300D1124BC01C90113
:1056C0008F5A9A4F0F94480AEFE3F9E084918823A8
:1056D00041F09091C00095FFFCCF8093C6003196B9
:1056E000F5CFE5EFF8E08491882341F09091C00078
:1056F00095FFFCCF8093C6003196F5CF8091490588
:1057000090914A0520E6289FF001299FF00D112471
:10571000EF5AFA4F8191882339F09091C00095FF9C
:10572000FCCF8093C600F6CFE3EFF8E084918823A6
:1057300041F09091C00095FFFCCF8093C600319658
:10574000F5CF8091C00085FFFCCF8AE08093C60032
:105750008091490590914A05019664E070E00F94AC
:10576000A80690934A05809349058091470590913A
:105770004805019690934805809347050895209128
:10578000470530914805243031050CF06AC040913E
:10579000490550914A0560E6649F9001659F300D70
:1057A0001124BC01C9018F5A9A4F0F94CB09EFE322
:1057B000F9E08491882341F09091C00095FFFCCFDF
:1057C0008093C6003196F5CFE8EEF8E08491882307
:1057D00041F09091C00095FFFCCF8093C6003196B8
:1057E000F5CF8091490590914A0520E6289FF00168
:1057F000299FF00D1124EF5AFA4F8191882339F037
:105800009091C00095FFFCCF8093C600F6CFE6EEE6
:10581000F8E08491882341F09091C00095FFFCCF7F
:105820008093C6003196F5CF8091C00085FFFCCFF4
:105830008AE08093C6008091490590914A050196BF
:1058400064E070E00F94A80690934A0580934905A0
:105850008091470590914805019690934805809363
:105860004705089560E080E50E9492FD779A0895CB
:105870009D9AA5980895F6DFFBDF40E052EC61E0C9
:1058800070E080EA94E05FDBE0EEF8E0849188234A
:1058900041F09091C00095FFFCCF8093C6003196F7
:1058A000F5CF8091C00085FFFCCF8AE08093C600D1
:1058B0008FE399E0FC012491222341F03091C00054
:1058C00035FFFCCF2093C6003196F5CF24B720FFDB
:1058D00014C0E8EDF8E03491332341F04091C0006A
:1058E00045FFFCCF3093C6003196F5CF3091C00014
:1058F00035FFFCCF3AE03093C60021FF14C0E8EC3E
:10590000F8E03491332341F04091C00045FFFCCFD3
:105910003093C6003196F5CF3091C00035FFFCCFF3
:105920003AE03093C60022FF14C0E7EBF8E0349170
:10593000332341F04091C00045FFFCCF3093C600B7
:105940003196F5CF3091C00035FFFCCF3AE030936F
:10595000C60023FF14C0E7EAF8E03491332341F096
:105960004091C00045FFFCCF3093C6003196F5CF83
:105970003091C00035FFFCCF3AE03093C60025FFE0
:1059800014C0E7E9F8E02491222341F03091C000EF
:1059900035FFFCCF2093C6003196F5CF2091C00093
:1059A00025FFFCCF2AE02093C60014BEEFE8F8E004
:1059B0002491222341F03091C00035FFFCCF209389
:1059C000C6003196F5CFE7E8F8E02491222341F0B4
:1059D0003091C00035FFFCCF2093C6003196F5CF43
:1059E0002091C00025FFFCCF2AE02093C600FC01D7
:1059F0002491EFE3F9E0222349F03091C00035FF14
:105A0000FCCF2093C60031962491F5CFE7E7F8E06C
:105A10002491222341F03091C00035FFFCCF209328
:105A2000C6003196F5CFE2E6F8E02491222341F05A
:105A30003091C00035FFFCCF2093C6003196F5CFE2
:105A4000E6E5F8E02491222341F03091C00035FFD3
:105A5000FCCF2093C6003196F5CFE4E3F8E0249123
:105A6000222341F03091C00035FFFCCF2093C600C7
:105A70003196F5CF2091C00025FFFCCF2AE020937E
:105A8000C600E9E2F8E02491222341F03091C00001
:105A900035FFFCCF2093C6003196F5CFEDE1F8E05D
:105AA0002491222341F03091C00035FFFCCF209398
:105AB000C6003196F5CF2091C00025FFFCCF2AE02B
:105AC0002093C600FC018491EFE3F9E0882349F0BC
:105AD0009091C00095FFFCCF8093C60031968491D1
